:100000000EC01DC01CC01BC01AC04EC018C017C0F7
:1000100016C015C014C013C012C011C010C01124E6
:100020001FBECFE5D2E0DEBFCDBF20E0A0E6B0E04E
:1000300001C01D92AB36B207E1F780D0C4C0E0CF5B
:100040003FB7F8948091670090916800A091690093
:10005000B0916A0022B708B601FE05C02F3F19F023
:100060000196A11DB11D3FBFBA2FA92F982F882738
:10007000BC01CD01620F711D811D911D43E0660F12
:10008000771F881F991F4A95D1F7089590B79F7DD4
:1000900090BF811105C08FB7F894C1988FBF0895A4
:1000A0008FB7F894C19AFACF1F920F920FB60F92A2
:1000B00011242F933F938F939F93AF93BF9380917E
:1000C000630090916400A0916500B091660030914A
:1000D000620026E0230F2D3768F129E8230F0396ED
:1000E000A11DB11D20936200809363009093640072
:1000F000A0936500B09366008091670090916800BE
:10010000A0916900B0916A000196A11DB11D809374
:10011000670090936800A0936900B0936A00BF9154
:10012000AF919F918F913F912F910F900FBE0F90A4
:100130001F9018950296A11DB11DD4CF83E08ABDF2
:1001400083BF789489B7826089BF80E48CBD8FEFCC
:100150008DBD87EC80BF86E886B98FB7F894B99AD1
:100160008FBF80E093DFC0916000D09161008C2F41
:100170008DDF81E090E0CD2B11F090E080E0909356
:100180006100809360005CDFEB018AEFC82ED12C08
:10019000E12CF12C55DF6C1B7D0B683E734068F041
:1001A000C114D104E104F104F1F281E0C81AD108CC
:1001B000E108F108C851DC4FEDCFC114D104E104CE
:0A01C000F10441F7D0CFF894FFCF0F
:00000001FF
